:LINE=2917
:020000040801F1
:10000000C8200020CD0001085D5801083F520108BA
:1000100000000000000000000000000000000000E0
:10002000000000000000000000000000B95A0108B4
:100030000000000000000000D1580108255B010805
:10004000DF00010800000000DF000108DF000108F8
:10005000DF000108DF000108DF000108DF00010800
:1000600000000000DF000108DF000108DF000108D8
:10007000DF000108DF000108DF00010800000000C8
:10008000DF000108F55B0108055C0108DF000108DD
:10009000DF000108DF000108DF000108DF000108C0
:1000A000DF000108DF000108DF00010861600108CE
:1000B00071600108A16001080348854600F036FB25
:1000C00000480047C96E0108C82000200448804746
:1000D00004480047FEE7FEE7FEE7FEE7FEE7FEE72F
:1000E000995B0108B900010830B50B4601460020B4
:1000F0002022012409E00D46D5409D4205D31D462E
:100100009540491B2546954040191546521E002D25
:10011000F1DC30BD10B5202A04DB0846203AD0407F
:10012000002110BD0B46D340D0402024A21A91409C
:100130000843194610BD03460B439B0703D009E053
:1001400008C9121F08C0042AFAD203E00B78037012
:10015000401C491C521EF9D27047D2B201E0027015
:10016000401C491EFBD270470022F6E710B513462B
:100170000A4604461946FFF7F0FF204610BD10B5A9
:10018000044605E00B780370401C002B00D0491C8E
:10019000521EF7D2204610BDCAB2401E4178401C04
:1001A0008A4202D00029F9D100207047421C017810
:1001B000401C0029FBD1801A704703460A78027060
:1001C000401C491C002AF9D11846704730B5054635
:1001D0000020034600E05B1C934205D2EC5CC85C47
:1001E000201A01D1002CF6D130BDF7B582B00F46F0
:1001F0000026029C06F08EF8009000680190257899
:10020000641C002D05D000F099F90068405DC0071E
:10021000F5D12B2D02D02D2D1CD0641E009800216D
:10022000016039462046049A00F08CF90146002FFF
:1002300004D03868A04201D1029838600098006864
:1002400002280BD00098019A0260700506D548423A
:1002500005B0F0BD012080020643DFE70846F7E75E
:10026000F8B502464A40D40F42004B0052085B08E2
:100270009A4202D20246084611464A0023D0C30DD4
:100280004A00DDB2120EAD1A202D35DA49020126E0
:10029000490AF6058A19002C00D0524220214F1B32
:1002A0001146B9402A411018C20D9A4221D0002CA3
:1002B00017D0012D08DCDA05801AD20F8019D20779
:1002C000DBB200F09AF9F8BDDA05801A012340008C
:1002D0001B06C01880185A428018CA0F10434900E4
:1002E00007E04908C2071143DA05801A801940085F
:1002F000801800F07AF9F8BD61000122511A001B44
:10030000F7E70122D2075140AAE70122D207504065
:10031000A6E7024670B54A40D30FDB0740002DD058
:100320004A002AD0010E140E000212020919400AD6
:10033000520A8418E50104465443000A120A2E04A6
:100340005043A4194219200CC543AA18120C0125C8
:10035000AD03521C521912047F39240400D0521CE0
:10036000104301D44000491EC2B20C06C009201837
:10037000401C4008802A02D003E0002070BD4008E5
:100380004000002900DA0020184370BDF0B51FB40A
:1003900088B00B990998002448400999C00F49007A
:1003A00049080991C0070B990090490049080B9131
:1003B00009990898A64608431CD00B990A98084347
:1003C00018D0099801244000420D4800410D0998B9
:1003D00024050003000B204309900B980003000B39
:1003E00020430B9050181C494018002201901446DD
:1003F000104605E0002001460DB0F0BD032801DAEB
:10040000034600E003239C46C11A0AAE0AE05F00DF
:1004100008ADED5B4F00F75B7D430027AA187C41D8
:10042000491C5B1E6145F2DD410004AB5A522104B8
:10043000120C0A43240C401C0828DFDB01980290B0
:100440000099704601910090059B049A07990698BF
:1004500000F019F9D0E700000DFCFFFF0EB50549CB
:100460000291002100910A460B46019100F00BF920
:1004700003B000BD33040000410040020122400AE5
:10048000D205090E80187F2901DA002070479629CD
:1004900003DC9622511AC84070479639884070474D
:1004A0004A0009030123090B1B051943094B10B529
:1004B000520D9A4201DA002010BD064B34339A42A5
:1004C00003DC9A1AFFF726FE10BD03495118884035
:1004D00010BD0000FF030000CDFBFFFFF0B51FB40F
:1004E0000646002082B005464024019100901BE0A2
:1004F000019922460F463046FFF70CFE049A059BF1
:10050000801A994110D310461946224600F020F96E
:10051000361A8F410197224601200021009F00F0EA
:1005200017F938184D4100902046641E0028DFDC82
:10053000019B00982946324607B0F0BD004870473D
:1005400020880108F7B582B0029C00272078641C3F
:1005500015460197302802D0002D15D015E02078DF
:100560000127641C782804D0582802D0002D09D017
:100570000BE0002D01D0102D07D100271025207889
:10058000641C02E0082500E00A250026009610E021
:100590000099012769430818020C294680B271436B
:1005A00000908E183804864201D3012001902078F3
:1005B000641C294600F0DCF80028E9DA03980028DA
:1005C00005D0002F01D0641E00E0029C0460019859
:1005D000002806D005F09EFE02210160C81E05B06D
:1005E000F0BD009930040843F9E7002904DA401C03
:1005F000490001D140084000704770B40024050C48
:1006000005D11024000402D1002921D01124050EA7
:1006100001D100020834050F01D10001241D850F0E
:1006200001D18000A41C002801DB4000641C0029CB
:1006300008D020252E1B0D46F540A14000D00121F9
:100640002943084301061B1B000ADB1D02D50020BD
:1006500070BC7047DB05181880180029F8DA401CB8
:100660004900F5D170BC40084000704710B5002B20
:1006700008DA0024401C614192185B411A4301D101
:100680004008400010BDF0B51FB482B005460C0014
:1006900003D0084605F01AFE02E005F017FE2030F0
:1006A000024600902146284600F052F8049B059A25
:1006B00004460F4618431143084314D0184610430C
:1006C0001BD0009840210A1A18460599FFF722FD11
:1006D00005460E46009A0599049800F039F808433B
:1006E00005D0012004E02046394607B0F0BD0020C7
:1006F000C11705430E432C43374300990E986305F9
:10070000401A7905E40A00220C43FD0A0A3002D59A
:1007100000200146E9E70105101969410C9C0D9D77
:1007200000196941FFF7A2FFDFE70000064C012531
:10073000064E05E0E36807CC2B430C3C9847103489
:10074000B442F7D3FFF7BCFC80880108A0880108F9
:1007500010B5202A04DB0146203A9140002010BD4C
:10076000914020239C1A0346E3401943904010BD5A
:100770003A2800D23038202302469A43412A01D336
:1007800010463738884201D30020C043704770B507
:100790008C180578401C6B075B0F01D10378401C57
:1007A0002A1106D10278401C03E006780E70401C26
:1007B000491C5B1EF9D12B0705D40023521E0DD412
:1007C0000B70491CFAE70378401CCB1A921C03E01B
:1007D0001D780D70491C5B1C521EF9D5A142D8D35F
:1007E000002070BD10B514210448FFF7BDFC00F0D7
:1007F0007DF980B201F080FA10BD0000540600209F
:10080000F8B5044600200090206881688907890FA8
:10081000012905D10168C9072CD1C168090429D46F
:100820008168154A102611400125002915D18168DB
:1008300029438160124811490068FFF755FC00E028
:10084000401E00900028FBD103F0B6F807460CE0EC
:1008500003F0B2F8C01B022807D9606C3043606413
:10086000A06C2843A0640120F8BD20680068C04344
:10087000C007EDD10020F8BD1700008040420F00F6
:10088000E401002010B5002001F0BAFE032001F0C1
:10089000B7FE052001F0B4FE062001F0B1FE0B20EA
:1008A00001F0AEFE10BD0000FEB5214E3078C0074D
:1008B0003CD0204D20A0291D05F0CAFC3078C0078F
:1008C00034D0298A20A005F0C3FC3078C0072DD091
:1008D000698A23A005F0BCFC3078C00726D0E87DEB
:1008E0006A7E297E6B4607C3AB7D6A7D297D22A087
:1008F00005F0AEFC3078C00718D02C462034298E85
:10090000E07B00900191A37B627B217B28A005F016
:100910009FFC3078C00709D0E98E607D009001917E
:10092000237DE27CA17C2AA005F092FCFEBD0000A4
:1009300084010020F001002053455249414C203AE7
:100940002025730D0A0000004E4F544920494E5493
:10095000455256414C203A2025640D0A0000000003
:1009600053454E534F5220504552494F44203A2050
:1009700025640D0A000000004D41432041444452CB
:10098000203A203078253032783A30782530327865
:100990003A3078253032783A3078253032783A302B
:1009A00078253032783A3078253032780D0A0000D8
:1009B0004C4F4720534552564552203A2025642E2D
:1009C00025642E25642E25643A25640D0A00000056
:1009D0005550475241444520534552564552203ABE
:1009E0002025642E25642E25642E25643A25640D69
:1009F0000A00000070B50446224923A005F028FC37
:100A0000274820600B21201DFFF7AEFB25A228A15F
:100A1000201D05F047FC274820827D20C000608211
:100A200090202075DA2060756A20A0750122E27599
:100A30007A202076F82060762046002120308172CE
:100A4000C023A376A825E576217702266677A377CB
:100A5000E57701704270FF228270C27002714171AD
:100A60007321B22301734125437385738D22C273B1
:100A7000114E26868174C374057542750F48E08651
:100A800070BD00001E8301085B25735D496E6974AB
:100A900020706172616D2E2E2E2E2E0D0A00000028
:100AA00055AA55AA313249454144543131390000E3
:100AB000257300001027000087350000642B00001C
:100AC00006490A7B02704A7B42708A7B8270C97B2E
:100AD000C17002492039098E8180704710020020C0
:100AE0000148008A70470000F00100200148408A58
:100AF00070470000F001002000487047F40100201A
:100B000006498A7C0270CA7C42700A7D8270497DE7
:100B1000C17002492039C98E8180704710020020BF
:100B200010B5FFF7AFFE01F08FFE00F035F800F0D2
:100B300095F904F07EFBFFF755FE08480078C007E2
:100B400004D007A2084909A005F082FBFFF7ACFE1C
:100B500010490F480968086010BD0000840100209A
:100B600076332E302E310000348301084C4F475B22
:100B700025735D52756E204151204150502E2E2E0E
:100B80002E2E2E28564552203A202573290D0A0074
:100B9000CCCC00004019002010B538211148FFF7D7
:100BA000E3FA104800F020F8002804D10D48FFF7C0
:100BB00021FF00F06FF80B48143000F0D7FA094C11
:100BC0002034A07A00F0E2FAA07A012808D1A01F10
:100BD00000F0C0FAA01E00F0B1FAA01C00F0DCFA90
:100BE00010BD0000F001002010B5044602460020B0
:100BF0000146382302F0BAFA03492068884201D13D
:100C0000012010BD002010BD55AA55AA174E184C42
:100C1000184D00F0BBFF00F011F9012803D100F0DE
:100C20005BFB01280AD000F0F1F900F007F9012878
:100C30000ED000F0CDFE01280AD011E03078C007B8
:100C400003D00D490DA005F003FB00F0F3FC07E015
:100C500001F044F800F0BCFE002801D100F076FB62
:100C6000286804600A2002F0EFFDD2E7840100202A
:100C7000AAAA0000401900200C8301084C4F475BD2
:100C800025735D52756E204F54412E2E2E2E2E2E22
:100C90000D0A000070B5094D0021202002F0CEF9A8
:100CA000322002F0D1FD00242A5D2146002002F00E
:100CB000C5FA641CA4B2382CF6D370BDF001002034
:100CC000F8B50B4E05460024600020184119022299
:100CD0006846FFF754FA102200216846FFF785FAAC
:100CE0003119641CE4B20875062CEDD3F8BD000080
:100CF000F001002010B5054A0021435C5418491C3E
:100D0000C9B223710A29F8D310BD0000F0010020F8
:100D100010B507480078C00606D506F053F802461D
:100D2000044905A005F094FA0F490120087010BD90
:100D300084010020448301084C4F475B25735D20EC
:100D400049502041737369676E65642E2E2E2E2ED6
:100D50006C65617365642074696D6520256420731A
:100D600065630D0A00000000C000002010B50448B3
:100D70000078C00603D5034903A005F069FA10BD49
:100D8000840100205E8301084C4F475B25735D2082
:100D9000495020436F6E666C6963742E2E2E2E2E82
:100DA0000D0A00001CB50D490D4806F04BFC0D491D
:100DB0000D4806F05BFC0DA103C901910090694646
:100DC000084607F04FF90B480078C00603D50A49DA
:100DD0000AA005F03DFA01201CBD0000893501087C
:100DE0007535010861360108E93501080202020281
:100DF0000202020284010020788301084C4F475B05
:100E000025735D573535303020496E697465642E21
:100E10002E2E2E2E2E2E2E0D0A00000008B500219B
:100E20006846017069460F2005F00AFE68460078A2
:100E300008BD0000004870472806002010B50024B7
:100E4000FFF7ECFF01460448012903D0002101709F
:100E5000204610BD0478FBE7C000002010B5FFF766
:100E6000A1FF10BDF0B5384C87B02078C00602D580
:100E700036A005F0EDF918223B496846FFF75BF90B
:100E80002078C00602D539A005F0E2F909203B49D7
:100E90000622000205F0A6F93949002000F036FFCD
:100EA0002078C00602D537A005F0D2F93E493D4A68
:100EB000084606F0ADFB2078C00602D53BA005F041
:100EC000C7F9404D404E02E000F060FF6D1E3078E3
:100ED00000282BD06D46A81D05F092FF03A8023014
:100EE000074605F081FF02A80230064605F094FF90
:100EF00006A805F06DFF2078C00602D533A005F0E6
:100F0000A7F9684607F0FAF8A81D00F023F938465B
:100F100000F014F9304600F03FF906A800F002F99D
:100F2000002005F0D3FC012007B0F0BD002DCBD18F
:100F30002078C00602D52EA005F08AF9002005F021
:100F4000C5FC0020F0E700008401002043616C6CC8
:100F5000696E6720444843505F696E697428292E82
:100F60002E2E0D0A00000000908301084C696E6B64
:100F70002055502E2E2E2E2E0D0A00002806002061
:100F8000280200205265676973746572696E672074
:100F9000444843502063616C6C6261636B732E2E16
:100FA0002E0D0A006D0D0108110D010843616C6CD6
:100FB000696E6720444843505F72756E28292E2E53
:100FC0002E0D0A0010270000C000002043616C6C49
:100FD000696E672077697A636869705F7365746E9C
:100FE0006574696E666F28292E2E2E0D0A0000008A
:100FF0000D0A495020776173206E6F7420617373FE
:1010000069676E6564203A280D0A000070B5FFF725
:1010100005FF012810D10948007800280CD1094C9F
:10102000074D20680560FFF71DFF2068056006A0DA
:1010300000F016F82068056070BD0000C0000020B8
:10104000AAAA0000401900206C6775706C75732E99
:101050006574687265652E636F2E6B720000000008
:101060007CB505461749012000F022FF164C207878
:10107000C00603D5294615A005F0EAF81B4801AAC9
:10108000294600F01FFF01460128207809D0C0063C
:1010900002D517A005F0DCF8012005F017FC0020B0
:1010A0007CBDC00609D56846C07900906846837942
:1010B0004279017915A005F0CBF8012005F006FC76
:1010C00001207CBD28020020840100205265736F3E
:1010D0006C76696E6720646F6D61696E206E616DFC
:1010E0006520222573222E2E2E0D0A003A0600209E
:1010F000444E535F72756E2829206661696C656481
:101100002C20726573203D202564000052657375A4
:101110006C743A2025642E25642E25642E25640DDA
:101120000A000000044902788A744278CA748278FE
:101130000A75C0784875704728060020044902786F
:101140008A724278CA7282780A73C078487370478C
:1011500028060020044902788A714278CA71827890
:101160000A72C07848727047280600200649027843
:101170000A7042784A7082788A70C278CA7002799E
:101180000A71407948717047280600200149887526
:101190007047000028060020044902788A734278CC
:1011A000CA7382780A74C078487470472806002091
:1011B00070B5FF2101311348FEF7D6FF12A220A11E
:1011C000104805F06FF885B2FFF796FC0D4C03460A
:1011D0001C4A60191CA105F065F8401985B200F0A1
:1011E00075FD024660191BA105F05CF8401985B237
:1011F000601919A217A105F055F8401980B20D2108
:10120000215470BD98060020504F5354202F646520
:101210007669636520485454502F312E310D0A48A9
:101220006F73743A203131352E3137382E36352EE2
:101230003134313A31333730330D0A0D0A000000B2
:1012400025730000E812010825737C3139303225FE
:10125000730000007C25730076332E302E310000A1
:1012600010B5FF2101310548FEF77EFF04A211A150
:10127000024805F017F880B210BD00009806002063
:10128000474554202F74696D6520485454502F31C0
:101290002E310D0A486F73743A203131352E3137B3
:1012A000382E36352E3134313A31333730330D0A5A
:1012B0000D0A00002573000010B502F07DFB054902
:1012C0004A684988801A884201D9012010BD00204F
:1012D00010BD0000D80000200148007870470000D1
:1012E000D800002000A07047323031393034303718
:1012F000323030300000000010B505490978890609
:1013000004D502460349044804F0A2FF012010BDA1
:1013100084010020208401083C13010810B5054910
:101320000978890604D50246034904A004F090FF19
:10133000012010BD84010020058401084C4F475B4B
:1013400025735D203A2025730A00000010B5FFF7D1
:10135000B3FF012805D100F005F8FFF7C1FB00F04D
:10136000CFF810BDF0B5274E85B03068244D0A2463
:10137000056003A8FFF7A4FB2348007880060CD57E
:101380006846028AC17B807B6B4607C36846437B05
:10139000027B1E491EA004F05BFF6846028A03A977
:1013A000002000F05FF80746012808D0012002F075
:1013B0004BFA641E30682406240E0560EDD12246E7
:1013C00012491DA004F044FF012F15D16846028A7E
:1013D00003A9012000F046F8012808D0012002F0FE
:1013E00033FA641E30682406240E0560EED12246CE
:1013F000064916A004F02CFF002005B0F0BD000047
:10140000AAAA0000401900208401002039840108A4
:101410004C4F475B25735D4C4F4720534552564513
:1014200052203A2025643A25643A25643A25643AE4
:1014300025640D0A000000005B25735D47455420BC
:1014400054494D45203A2025640D0A005B25735D03
:10145000504F53542054494D45203A2025640D0ADD
:1014600000000000F0B516460F460546A1B00A245C
:10147000002350220121022006F0C0FC022802D0E5
:10148000002021B0F0BD32463946022005F056FA60
:1014900001280AD1002D0CD0FFF78AFE0246174919
:1014A000022006F005F9002806DA022005F00EFAFF
:1014B000E6E7FFF7D5FEF1E7022005F0B9FC0028CA
:1014C00011D080226946022005F026FF0006000E9A
:1014D00009D0002D68460ED0FFF70EFF022005F060
:1014E000F5F90120CDE7012002F0AEF9641EE4B267
:1014F000002CE1D1F2E7FFF711FFEFE7980600209B
:1015000010B5034C608002F057FA606010BD000017
:10151000D8000020FFB585B006460D460024684679
:10152000FFF7EEFA61207701C000381804F0CAFD19
:1015300000284FD0132843D0172802D01C2856D19A
:1015400029E04120C000381804F0BCFDC00710D0CD
:1015500028A2052102A8089B04F08AFE042202A901
:10156000304606F0A5F8002803DA304605F0AEF95B
:1015700039E0304605F05CFC040018D002463046E5
:10158000079905F0C9FE002811DD286800192860B8
:10159000052009B0F0BD304605F04AFC002806D011
:1015A00080223046079905F0B7FE002801DC0620AE
:1015B000EFE7304605F0F2FA012818D00320E8E7FB
:1015C000684682886946304605F0B8F90128CCD1D2
:1015D0000220DEE76846828800230121304606F0BB
:1015E0000DFCB04201D00420D3E70120D1E7204612
:1015F000CFE70000253034640000000070B50B4DCB
:101600000B4E012806D0306805600121202001F032
:1016100015FD70BD0224306805602146202001F0D0
:101620000DFD641CE4B2402CF5D370BDAAAA0000E5
:10163000401900200120FFF7E1FF00F02FF80128FA
:101640000DD1094C074D206805600020FFF7D6FF3B
:10165000642002F0F9F82068056000F05DF904F0FC
:1016600021F90000AAAA00004019002030B50D0A97
:1016700028184018C1B20020039C04E0155C6918CA
:10168000401CC9B2C0B29842F8D3C843401CC0B293
:10169000A04201D1012030BD002030BDF0B5A3B083
:1016A00000252248019500786424000703D52049CD
:1016B00020A004F0CDFD2A4F284E386806602B4646
:1016C00002AA01A90320FFF725FFC0B2052806D111
:1016D00002A800F081F801281BD0032819D0641E4D
:1016E000E4B2012002F0B0F8386806601D48854277
:1016F00001D2002CE3D10D480078000706D52B4617
:1017000000940B4918A0019A04F0A2FD002C03D00C
:1017100009E06D1CADB2E4E7642D04D92249012033
:10172000087023B0F0BD0020FBE70000840100201A
:10173000EF8301084C4F475B25735D20446F776E44
:101740006C6F6164206669726D776172652E2E2EF2
:101750002E2E2E2E2E2E2E0D0A000000AAAA0000DC
:1017600040190020881300004C4F475B25735D2013
:101770005570677261646520646F6E6528524356C8
:10178000203A202564292E2E2E2E2E2E2E20676FF5
:1017900020746F207265736574282564203A2025B3
:1017A00064290D0A0000000040060020F7B500275C
:1017B000012149034018164685B23C4608E00198CD
:1017C000025D281981B2384601F038FD641CE4B28C
:1017D000B442F4D3FEBD0000F0B5027809258BB009
:1017E00004463A2A0AD030480078000703D52F492A
:1017F0002FA004F02DFD00200BB0F0BDA178607883
:1018000004F05BF90646A37962792179E07804F067
:1018100073F900270A900AE060194178605D04F0CE
:101820004CF901A9AD1CC8557F1CADB2FFB2B7423F
:10183000F2D3217AE07904F040F9042804D0052895
:1018400002D0002E02D004E00320D5E7207A312810
:101850001AD0601909904178605D04F02EF900906B
:101860000746334601AA18460A99FFF7FFFE0028EB
:101870000CD01948324641888919418001A90A983B
:10188000FFF794FF0120B7E70420B5E7064800788A
:10189000000707D500970998625D437803490FA0B8
:1018A00004F0D6FC0220A7E784010020C2830108CF
:1018B0004552524F525B25735D496E76616C696487
:1018C000205375666669782E2E2E2E2E2E2E2830E9
:1018D0007825303278290A00400600204552524FC0
:1018E000525B25735D3D3E496E76616C69642043B1
:1018F0006865636B53756D203A2028307825303247
:1019000078203A20307825303278203A20307825F7
:10191000303278290D0A000070B5312210210948B3
:10192000FEF71BFC074D00242D1F012636032A5D00
:10193000A119002001F082FC641CE4B2142CF6D33F
:1019400070BD00004406002000B5A1B080216846AB
:10195000FEF70AFC00F0BAF9024605A1684604F059
:10196000A1FC694605A004F073FC21B000BD000095
:1019700041513D7B25737D0D0A0000002573000059
:1019800010B5A2B0802101A8FEF7EEFBFFF7A8F882
:101990000446FFF7B1F8034605A207A101A8009489
:1019A00004F080FC01A909A004F052FC22B010BD93
:1019B00076332E302E310000434F4E4649473D7B53
:1019C00025732C25732C25647D0D0A0025730000DA
:1019D0000148007870470000E000002010B5B6B064
:1019E000FFF728FA0446802115A8FEF7BDFB637DAA
:1019F000227DE17CA07C119012A80EC0637C227C29
:101A0000E17BA07B0D900EA80EC0637B227BE17A68
:101A1000A07A09900AA80EC0637A227AE179A079A7
:101A2000059006A80EC063792279E178A07801902C
:101A300002A80EC0607800902378A27D044915A802
:101A400004F030FC15A903A004F002FC36B010BD70
:101A5000248801082573000070B50A250024802120
:101A60003248FEF781FB314E301900F0D5FF0028D7
:101A700041D0305D5D2806D02046641CE4B2802849
:101A800001D2002DF0D10E2229A12848FEF79EFB9D
:101A90002B4C002835D006222AA12448FEF796FBBD
:101AA00000282FD0072229A12048FEF78FFB00280D
:101AB0002AD00A2227A11D48FEF788FB002826D03D
:101AC000062227A11948FEF781FB002822D0082210
:101AD00025A11648FEF77AFB00281ED00B2225A16F
:101AE0001248FEF773FB00281BD0082224A10F48E0
:101AF000FEF76CFB70BD6D1EEDB2012001F0A4FE7F
:101B0000BFE70120207070BDFFF768FF70BDFFF7D1
:101B100037FF70BDFFF718FF70BD044800F05CF898
:101B200070BD024800F040F870BD0000980700202A
:101B30004C4F47494E3D3171327733653472000066
:101B4000E00000204C4F474F555400004745543AA1
:101B50004E4554004745543A434F4E4649470000CE
:101B60004745543A415100005345543A4E45547B41
:101B7000000000005345543A434F4E4649477B000E
:101B80005345543A43414C7B0000000008B5684679
:101B900000F042FF012805D1684600785B2801D19A
:101BA000FFF75AFF08BD000010B50B300446014690
:101BB00004A004F04DFB2046FFF79CF8FFF76AF8FD
:101BC00010BD0000524356205041434B4554203D28
:101BD0002025730D0A00000010B5017A0830302965
:101BE00004D1801CFFF76CF8FFF754F810BD00001B
:101BF00010B588B000F046F830210D48FEF7B4FA71
:101C00000B481438448AC38982890189049105A943
:101C10001CC10488038A4289818803946C460EC4DF
:101C2000C38804A23021143004F022FB08B010BD98
:101C300068060020253034647C253034647C2530EF
:101C400035647C253035647C253035647C25303521
:101C5000647C253034647C253033647C25303464E6
:101C60000000000010B501F0A7FE05494A680968A8
:101C7000801A884201D9012010BD002010BD00004B
:101C8000D000002010B500F0BBFD0F4C208000F00C
:101C9000C3FD608000F0C6FDA08000F0B7FDE080CD
:101CA00000F0A2FD208100F099FD608100F0C6FDEA
:101CB000A08100F09FFDE08100F0BAFD208200F0DD
:101CC00087FD608210BD00005406002010B5FFF7AC
:101CD0008FFF014810BD00006806002010B5FFF717
:101CE000C1FF012807D1002000F062FEFEF7FEFED2
:101CF00080B200F001F810BD10B5034C206001F077
:101D00005BFE606010BD0000D0000020F8B5092720
:101D10000D46064600243F0206221A493846009422
:101D200004F0FCF9174801784278C37811438278AF
:101D30001A43114302791143427911430CD10470C3
:101D400008214170DC218170C47004714471014626
:101D50000622384604F046FA0A4F0B483C3FBE7054
:101D6000BD6378630F2004226946000204F03AFA4A
:101D700004226946900104F035FA05F08FFC3C70AE
:101D8000F8BD00002001002078563412F8B5474C09
:101D9000207806281FD0A07861214001C900401892
:101DA00004F090F9222805D0002344220221A078D3
:101DB00006F024F8012505F069F9C1B20022A25607
:101DC0003A4800260127C01D130004F096FA0506C4
:101DD0000D1C314C2F000520F8BD06704670867032
:101DE000C67005F06BFD5EE002291CD1A16B0A7C78
:101DF00002704A7C42708A7C8270C97CC17005F096
:101E000011FE02204BE005290BD104F0E1FC002873
:101E100001D0606A3FE005F041FCE06A804726702F
:101E200004E006293DD004F007FD05462846F8BD2C
:101E3000A16904254A1CF9D0E26949089142F5D20A
:101E40001A490278C91C0A7042784A7082788A70EE
:101E5000C078C870606B401C606305F0E3FD05F05E
:101E60001DFC04201BE004250529DAD10F4966700A
:101E7000C91C0A7803789A420BD14A7843789A426F
:101E800007D18A7883789A4203D1C978C078814291
:101E900002D0A06A0325804705F000FC03202070D3
:101EA000C4E705F0FBFB2770C0E70000E40000205A
:101EB000024A107002485160508070473001002083
:101EC00022110000F7B50020214C88B060700D464B
:101ED00003460246A0600221207805F08FFFFF260E
:101EE0000136334629460020626804F0EFFE3527AC
:101EF00082B20097089B26E0207804F099FF050045
:101F000016D0B54200D9354607A8009006AB2A4640
:101F10002078616805F074FA0A9A01A8616805F0F2
:101F20004FF90546207804F0D1FC28460BB0F0BDEF
:101F300004F0B8FC002801DA0020F7E70028DBD124
:101F4000089B00972A462078616805F09FFED3E73A
:101F500030010020F8B505460446403528780026B3
:101F6000012808D001202870206881688907890F1E
:101F7000012908D101E00220F8BD0168C90738D164
:101F8000C168090435D4616CFF22013291430222F9
:101F900011436164C1688907890F0091C16889088C
:101FA0008900C1602068816892071143816001F057
:101FB00003FD07460EE001F0FFFCC01B022809D913
:101FC000606C02218843102108436064002028705F
:101FD0000120F8BD206880680028ECDB2068C1681B
:101FE000009A1143C160606C80088000401C6064EE
:101FF00004E0606C20210843606401260020287002
:102000003046F8BDF8B500250446403400952278E6
:10201000012A39D00122227003689E68760767D4AE
:10202000384F4E68BE424DD09E6A0F78BA40164374
:102030009E620123826B1B079A421FD0012A1DD08A
:10204000022A1BD0032A19D0042A17D0052A15D03A
:10205000062A13D0072A11D002688B6856697607C2
:10206000760FB3420AD05369DB08DB005361006886
:1020700042690B7A5B075B0F1A4342610A68102AB8
:1020800004D0112A02D038E00220F8BD1E4883682F
:10209000102A07D001229205134383600868102894
:1020A00003D02AE00122D205F6E719481749006853
:1020B000FEF71AF80A21484300E0401E009000286D
:1020C000FBD11AE0986A0E78B24090439862096892
:1020D000102901D0112910D10B488268102904D091
:1020E000012189058A43826007E00121C905F9E7DA
:1020F000416C2022114341640125002020702846B4
:10210000F8BD0000011000000027014040420F0010
:10211000E40100200068006C70470000F8B500255D
:102120000446002803D0606C002802D008E001209B
:10213000F8BD0020A06440210855204600F0A8F812
:10214000606C1022C006002870DB20688168490797
:102150006CD4616C13019943022319436164816853
:102160008907890F012905D10168C9070FD1C16805
:1021700009040CD4C16818239943A3681943C160AA
:102180002068016963688900890819430161206832
:10219000C1683D4B1940C160A069E1698003C90372
:1021A0000843216A4B031843636B012B02D00123C0
:1021B0001B0300E000231843E36818432369022B44
:1021C00009D000231843236B666A5B001843012380
:1021D000012E02D00AE00423F4E7002927D0616C25
:1021E000202631436164A16C1943A164A16A0E46A3
:1021F000FF3EC23E02D0E66A314308432168CE6802
:102200000643CE600126A16B3607B14213D00129E7
:1022100011D002290FD003290DD004290BD0052994
:1022200009D0062907D0072905D010E028E00121B0
:1022300009040843DAE721684E69F608F6004E61A2
:1022400021684E69278F7F077F0F3E434E612168CB
:10225000C9680E4E3140814207D10020A064606CF5
:1022600080088000401C606408E0606C02218843A4
:1022700010436064A06C1843A06401252846F8BD93
:10228000606C10436064F8E71902FEFFE7FF3F83CC
:1022900010B586B0044614216846FDF765FF0F4966
:1022A0002068884218D10E48826941150A4382612C
:1022B00082690A400592426949020A4342614069C3
:1022C0000840059002200090032001900020029019
:1022D0006946044801F0C6FA06B010BD002401406A
:1022E000001002400004004870B504462168002038
:1022F0008968490721D425464035297801291CD011
:1023000001212970E169012904D02046FEF778FAFD
:10231000002811D1616C0A4A1140FF220132114399
:1023200061640021A164297022681C211160216868
:102330008A6804231A438A6070BD022070BD0000C1
:10234000FEF1FFFFF8B50246FF2701370924E40636
:102350001E481F4D3E01130003F0CFFF0E080B0F68
:102360001215191C322125292D3235310A463946DC
:1023700013E00A46012149021FE00A4604211CE03D
:102380000A46012101E00A463146284615E00A4680
:10239000394612E00A460121C90220460DE00A46EC
:1023A0000121C903F9E70A460121890205E00A462D
:1023B0000121C90201E00A46314601F0F7FAF8BDF1
:1023C0000A463146E9E70A464021DEE700080048B0
:1023D0000004004870B50024014620314A78022AE2
:1023E00003D004218163012416E0026813680E25DE
:1023F000AB431360026813685B085B001360012243
:10240000056C1346AB40C56B6B604A7000220A70C6
:10241000416B002900D08847204670BD01480088E4
:10242000704700008801002010B504490020088092
:102430000348FFF78FFD0028FAD110BD8801002066
:102440005C18002010B50548FFF74EFF0348FFF762
:1024500061FE03490880002010BD00005C180020C8
:1024600088010020034610B50020024604E09C5C71
:102470002018521C80B2D2B28A42F8D310BD00009C
:1024800008B56946024802F0E9FF0028F9D108BD05
:10249000440C00200148C088704700008A010020D9
:1024A00001484088704700008A0100200148808868
:1024B000704700008A01002010B500F07DF8044844
:1024C00003F001F8034901200870002010BD00004E
:1024D000440C00208A01002070B588B000240A2531
:1024E00020216846FDF740FE6E463119154802F07E
:1024F000B5FF002804D068460078322803D00AE0EF
:102500006D1CEDB207E06846641C4078E4B23D28DB
:1025100004D0202C13D0002DE7D110E0202CFAD1CC
:102520001E216846FFF79EFF6946C98B49BA814262
:1025300005D1684600F04EF8002008B070BD0120BB
:10254000FBE70000440C002010B50024FFF7C4FF97
:10255000002808D006480078000603D5054906A0E3
:1025600003F076FE0124FFF78BFF204610BD00002C
:10257000840100205B8401084C4F475B25735D3D5F
:102580003E4572726F722072656164206D65617381
:102590007572656D656E740D0A00000010B5044912
:1025A0000978012903D10146024802F072FF10BDEB
:1025B0008A010020440C002010B500210220FFF702
:1025C000C1FE642001F040F901210220FFF7BAFEAC
:1025D00010BD000041790279090211434ABA074946
:1025E0004A80C279837912021A4352BA8A80427AA7
:1025F000037A1002184340BAC88070478A0100204D
:1026000001218140024882681143816070470000C7
:102610007C010020002210B5401C1346891E05E0F5
:1026200004785B1CA218D2B2DBB2401C8B42F7DBF1
:10263000D043401CC0B210BD08B56946024802F044
:102640000DFF0028F9D108BD4C100020014840883A
:10265000704700009401002010B5044802F033FFD9
:10266000034901200870002010BD00004C1000201C
:1026700094010020FEB500240A25009401946E46C2
:1026800002943119174802F0E9FE002812D068467A
:10269000641C0078E4B2FF280FD068464078172801
:1026A0000BD068468078042807D0092C17D0002D5D
:1026B000E7D114E06D1CEDB2F9E7092CF7D109213F
:1026C0006846FFF7A7FF6A461179537909020B4361
:1026D000117A814203D1044843800020FEBD0120CD
:1026E000FEBD00004C1000209401002010B5002415
:1026F000FFF7C0FF002808D006480088C00503D5B2
:10270000054906A003F0A4FD0124FFF795FF20462C
:1027100010BD000084010020728401084C4F475B0B
:1027200025735D3D3E4572726F7220726561642053
:102730006D6561737572656D656E740D0A000000DC
:1027400010B5064C2178012906D10146044802F053
:10275000A0FE6068401C606010BD00009401002075
:102760004C10002010B51849097901290BD0174CDD
:10277000030003F0C2FD070509081317212508000F
:10278000FFF74CFE208010BDFFF78AFE6080FFF748
:102790008DFEA080FFF77EFEE08010BDFFF756FFA4
:1027A000208110BD00F0CEF9608100F0E3F9A08136
:1027B00000F0D2F9E08110BD00F066FD208210BD6E
:1027C00001F03CF8608210BD7C0100202808002048
:1027D0000148408A704700002808002001484089CD
:1027E0007047000028080020014800897047000059
:1027F000280800200148C0897047000028080020F0
:102800000148008870470000280800200148C0885F
:1028100070470000280800200148408870470000E9
:102820002808002001488088704700002808002000
:102830000148008A7047000028080020014880896C
:10284000704700002808002010B500F023FC044663
:10285000FFF7EAFD0443FFF72FFE0443FFF7FCFEFA
:102860000443FFF7F9FE044300F010FA044300F0BC
:1028700089FD044300F016FF044300F08FFE20435F
:1028800007D01348007A400603D5124912A003F07E
:10289000DFFC14211848FDF767FC18480068016840
:1028A0002022114301600A490122491C144802F008
:1028B000D3FB07490122891C124802F0CDFB0449D1
:1028C0000122C91C104802F0C7FB002010BD000007
:1028D0007C0100204E8401084552524F525B257303
:1028E0005D48414C2044525620494E49542E2E2ECC
:1028F0002E2E2E2E2E0D0A0028080020081B002048
:10290000781B0020E81B0020581C002008B50C2371
:1029100002226946104800F0BDFD104900280888D1
:1029200008D0C00404D581220D490EA003F090FC0C
:10293000012008BDC00406D56846438802880849BE
:1029400013A003F085FC6946184809884180694650
:1029500049880180002008BD082000008401002073
:10296000F28601085B25733A25645D204552524F7B
:1029700052203A20434D445F4D4541535552455FE7
:102980004149525F5155414C4954590D0A000000CC
:102990004C4F475B25735D434F3228256429203A0D
:1029A0002054564F43282564290D0A00D8010020E1
:1029B00010B5144C2078030003F09FFC0705081B9A
:1029C0000B0E11141B00FFF73DFD0DE0FFF7BCFDE2
:1029D0000AE0FFF78BFE07E000F064F904E000F086
:1029E00055FD01E000F0C0FE002802D12078FFF77D
:1029F000B9FE2078401CC0B22070072801D1002009
:102A0000207010BD7C01002010B50146014802F085
:102A100040FD10BD3C08002010B50146014802F001
:102A20001DFD10BD3C08002010B5144600F02AF82A
:102A30000246A0420AD006480088400504D5234635
:102A4000044905A003F004FC012010BD002010BDC6
:102A500084010020B98401084C4F475B25735D3D1C
:102A60003E496E636F72726563742043524328302F
:102A70007825303278203A20307825303278290D88
:102A80000A00000070B50546FF20002231240FE047
:102A9000AB5C58400823060602D54000604000E0C9
:102AA00040005B1E1B06C0B21B0EF4D1521C92B23A
:102AB0008A42EDD370BD00007CB50546032269460D
:102AC000104800F045F9104C002805D0208840053A
:102AD00010D50E490EA00BE0684682780221FFF760
:102AE000A3FF002808D02088400503D5074910A07F
:102AF00003F0AEFB01207CBD6846008840BA288008
:102B000000207CBD02020000840100202A8501080B
:102B10004C4F475B25735D3D3E4572726F7220726C
:102B200065616420636F6D6D616E640D0A00000065
:102B30004C4F475B25735D3D3E4572726F7220437B
:102B400052430A0010B503480068FDF795FC80B2B7
:102B500010BD00009C01002010B5054803498068A5
:102B6000FDF7D7FBFDF788FC80B210BD00002041C7
:102B70009C01002010B5074805494068FDF7C9FBD6
:102B80000549FDF76DFBFDF777FC80B210BD000035
:102B9000000020419C01002000007A4438B5044622
:102BA00064200D460B4600902246C321084800F0E1
:102BB000ADFF00280AD007480088C00405D5227858
:102BC0002B46054905A003F043FB012038BD00005A
:102BD000F418002084010020A28401084552524FBD
:102BE000525B25735D203D3E204932432052656192
:102BF000642E2E2E2E2E4255465B305D28307825D1
:102C000030327829203A2053495A45282564290A28
:102C10000000000038B5044664200D460B460090C5
:102C20002246C221084800F0FDFF00280AD00748CC
:102C30000088C00405D522782B46054905A003F07D
:102C400007FB012038BD0000F4180020840100209B
:102C50008A8401084552524F525B25735D203D3EE8
:102C6000204932432057726974652E2E2E2E2E4233
:102C700055465B305D2830782530327829203A205F
:102C800053495A45282564290A00000010B502203E
:102C900000F09EFD0446142000F0D6FD00F006F979
:102CA000204310BD38B50020694608806846FFF70C
:102CB00003FF0F4C002803D168460088012809D083
:102CC0002088400511D5684602880A490AA003F009
:102CD000BFFA0AE000F072F8002807D0208840050B
:102CE00003D504490FA003F0B3FA012038BD00005A
:102CF00084010020358601084C4F473D3E5B25731B
:102D00005D20446576696365206E6F74207265612D
:102D1000647928307825303278292E2E2E2E2E2ECA
:102D20000D0A00004C4F473D3E5B25735D20457208
:102D3000726F7220726561642073656E736F7220AA
:102D4000696E666F2E2E2E2E2E2E0D0A00000000AC
:102D5000FEB50F460446010A6846017016464470E7
:102D60000221FFF757FF0A4D002809D028884005A7
:102D700004D52246074908A003F06AFA0120FEBDE7
:102D800031463846FFF70AFF0028EFD1FEBD0000AC
:102D900084010020EB8401084C4F475B25735D3DA7
:102DA0003E4572726F7220636D642077726974653C
:102DB00028307825303478290D0A0000F0B589B024
:102DC00003200025122269460002FFF7C1FF254EAD
:102DD000002805D0308840051AD5234923A015E0E6
:102DE00000246F4660002018C01982780221FFF786
:102DF0001BFE2843641CE4B20546062CF2D30028CF
:102E000009D03088400503D5174921A003F020FAE6
:102E1000012009B0F0BD68460088234A40BA010489
:102E20006846C0780002014368460079014368465D
:102E30001160C08840BA01046846407A000201432C
:102E40006846807A014368465160808940BA01042F
:102E50006846C07B000201436846007C01430020B5
:102E60009160D6E784010020178601084C4F475B2C
:102E700025735D3D3E4572726F72207265616420FC
:102E80006D6561737572656D656E740D0A00000085
:102E90004C4F475B25735D3D3E4572726F72204318
:102EA00052430D0A000000009C0100201CB50020C8
:102EB00069460870487002216846FFF7E3FD6946DD
:102EC00088700322102000F025F8002809D005485A
:102ED0000088400504D5044A044905A003F0B8F968
:102EE00001201CBD8401002004520000CC85010893
:102EF0004C4F475B25735D3D3E4572726F72206398
:102F00006D642077726974652830782530347829AB
:102F10000D0A000070B51346020A88B004466846E0
:102F200002704470002908D0002204E08D5C8618ED
:102F3000521CB570D2B29A42F8D3991CFFF76AFEC0
:102F4000002809D005480088400504D522460449D8
:102F500004A003F07DF9012008B070BD84010020B9
:102F6000D08401084C4F475B25735D3D3E4572722E
:102F70006F7220636D6420777269746528307825DC
:102F8000303478290D0A000010B500210520FFF724
:102F9000D9F910BD10B501210520FFF7D3F910BDF7
:102FA00070B5184D044628880026C0B0000505D528
:102FB00023463246144915A003F04AF9FF23013392
:102FC0006A462146304600F0D1F800246E462007BC
:102FD00005D12888000509D514A003F039F92888FF
:102FE000000503D5315D12A003F032F9641CA4B2D0
:102FF000FF2CECD92888000502D50CA003F028F995
:1030000040B070BD840100207B8601084C4F475BB7
:1030100025735D3D3E2041444452283078253034AC
:1030200078203A2030782530347829000D0A0000C5
:103030005B3078253032785D00000000F8B5054639
:103040000C46062000F0F0F8200911494000085C09
:103050000F4A2107C90E203A515AC6B20C0ACFB204
:10306000FFF792FF284600F0B7F8304600F0B4F8BA
:10307000204600F0B1F8384600F0AEF8FFF78AFFBE
:10308000042000F0D1F8642000F0DEFBF8BD000061
:10309000C801002010B501210420FFF753F9FFF704
:1030A00073FF00F08BF8002810D0002000F086F8A5
:1030B00000F084F8020009D00C480088000503D510
:1030C0000B490CA003F0C4F8012010BDFFF762FF0C
:1030D0000020FFF765FF01200003FFF761FF0120DB
:1030E0004003FFF75DFF002010BD000084010020B9
:1030F000948601084552524F525B25735D526561BB
:103100006420737461747573207265676973746584
:103110007228307825303278290A000008B500235B
:10312000DB4301226946084801F078FA002807D0FD
:1031300006480088400403D5054906A003F088F836
:103140006846007808BD0000B41900208401002002
:10315000638601084552524F525B25735D3D3E52D6
:103160006561642E2E2E2E2E2E2E0A00FFB581B004
:103170001D460C46064600F021F8C007FBD1F7B209
:10318000260AE4B2FFF700FF032000F025F83846D6
:1031900000F022F8304600F01FF8204600F01CF83E
:1031A000002405E0FFF7BAFF03990855641CA4B298
:1031B000AC42F7D3FFF7EEFE05B0F0BD10B5FFF758
:1031C000E3FE052000F008F8FFF7A8FF0446FFF72C
:1031D000E1FE204610BD000001B50023DB430122C3
:1031E0006946074801F0C6FA002807D0054800885C
:1031F000400403D5044905A003F02AF808BD0000E7
:10320000B4190020840100204B8601084552524F1A
:10321000525B25735D3D3E57726974652E2E2E2ECE
:103220002E2E2E0A0000000010B50446FFF7ACFE5B
:103230002046FFF7D1FFFFF7ADFE10BDF8B50546FC
:1032400017460C460620FFF7EFFFFFF7B7FF800792
:10325000FBD5EEB2250AE4B2FFF796FE0220FFF797
:10326000BBFF3046FFF7B8FF2846FFF7B5FF204603
:10327000FFF7B2FF3846FFF7AFFFFFF78BFEFFF710
:103280009DFFC007FBD1F8BD0148008870470000D2
:10329000D801002038B5044664200D460B46009046
:1032A0002246B121084800F031FC00280AD0074826
:1032B0000088C00405D522782B46054905A002F0F8
:1032C000C7FF012038BD0000A8180020840100209D
:1032D000C08601084552524F525B25735D3D3E202A
:1032E00049324320526561642E2E2E2E2E425546C1
:1032F0005B305D2830782530327829203A205349D8
:103300005A45282564290D0A0000000038B50446F6
:1033100064200D460B4600902246B021084800F07C
:1033200081FC00280AD007480088C00405D522780F
:103330002B46054905A002F08BFF012038BD000097
:10334000A818002084010020A88601084552524F89
:10335000525B25735D3D3E204932432057726974AC
:10336000652E2E2E2E2E4255465B305D2830782558
:1033700030327829203A2053495A45282564290DAE
:103380000A0000001CB5022303226946194800F018
:1033900081F8194C002805D02088C0041ED5174993
:1033A00017A00CE00223012269461F4800F072F8C2
:1033B000002807D02088C00410D510491BA002F0B7
:1033C00047FF0BE068460288202A09D02088C00405
:1033D00004D52023094920A002F03AFF01201CBD9A
:1033E000114800220A2311462C3800F053F800201F
:1033F0001CBD0000823600008401002025870108E2
:103400004552524F525B25735D203D3E2047657407
:103410002073657269616C2069642E2E2E2E2E2E0B
:103420002E2E0D0A000000002F2000004552524FA2
:10343000525B25735D203D3E2047657420666561C3
:10344000747572652076657273696F6E2E2E2E2EDE
:103450002E2E2E2E0D0A00004552524F525B257320
:103460005D203D3E20496E76616C69642046656151
:10347000747572652053657428307825303478204F
:103480003A20307825303478290D0A0010B5FFF73E
:103490003DFA10BDFFB587B00446010A68460170C9
:1034A0001E46154644700221FFF730FF1E4F0028CC
:1034B00008D03888C0041FD522461C491CA002F041
:1034C000C7FE19E0002D2CD0002404E0012000F0FC
:1034D000BBF9641CE4B2B442F8D368002818C1B246
:1034E0006846FFF7D7FE002809D03888C00403D506
:1034F0000E4919A002F0ACFE01200BB0F0BD002077
:1035000069460CE04200821853185A781B78120260
:103510001A434400089B52BA401C1A53C0B2A84236
:10352000F0D30020E9E7000084010020D7860108DD
:103530004552524F525B25735D3D3E204932432038
:1035400057726974652E2E2E2E2E28307825303431
:1035500078290D0A000000004552524F525B257336
:103560005D3D3E2049324320526561642E2E2E2E51
:103570002E0A000010B500224021024800F016FA81
:1035800010BD00000004004810B50122402102488F
:1035900000F00CFA10BD00000004004810B500F067
:1035A0002BF8002010BD000010B50A46002301468C
:1035B000DB43054801F032F8002803D0034904A09A
:1035C00002F046FE10BD00005019002038870108A7
:1035D0004552524F525B25735D3D3E526561642EEC
:1035E0002E2E2E2E2E2E0A0008B501216846FFF73A
:1035F000DBFF6846007808BD10B5074C00220421A7
:10360000204600F0D3F90A2000F01EF9012204211F
:10361000204600F0CBF910BD000C004810B50A465A
:1036200000230146DB43054801F0A4F8002803D03D
:10363000034904A002F00CFE10BD00005019002048
:10364000518701084552524F525B25735D3D3E57ED
:10365000726974652E2E2E2E2E2E2E0A000000006A
:1036600001B501216846FFF7D9FF08BD002210B55A
:10367000401C1346891E05E004785B1CA218D2B2D8
:10368000DBB2401C8B42F7DBD043401CC0B210BD04
:1036900008B56946024801F0E1FE0028F9D108BDED
:1036A0005414002010B5044801F00DFF0349012017
:1036B0000870002010BD000054140020DC01002020
:1036C000FEB500240A25009401946E460294311937
:1036D0001A4801F0C3FE002804D068460078FF288D
:1036E00003D00AE06D1CEDB207E06846641C407828
:1036F000E4B2042804D0092C1ED0002DE7D11BE031
:10370000092CFAD168460079000608D50C480088D3
:10371000800411D50B490CA002F09AFD0CE00921A0
:103720006846FFF7A3FF6946097A814204D16846DB
:1037300000F036F80020FEBD0120FEBD541400202C
:10374000840100206B8701084C4F475B25735D2087
:1037500053656E736F72206661756C742E2E2E2EFB
:103760002E2E0D0A0000000010B5FFF7A9FF044639
:10377000FFF78EFF024900200870204610BD0000B0
:10378000DC01002010B504490978012903D1014664
:10379000024801F07EFE10BDDC0100205414002020
:1037A00010B501794079C906C90C4018FCF756FEDE
:1037B000044A054BFCF7EAFDFCF772FE034948801A
:1037C00010BD00009A9999999999B93FDC010020A0
:1037D0001CB50446010A6846017044700221FFF7D7
:1037E00051F9014668468170232003226946400250
:1037F000FFF790FB002809D005480088400504D554
:103800002246044904A002F023FD01201CBD000053
:1038100084010020058501084C4F475B25735D3D01
:103820003E4572726F722073657420696E746572A2
:1038300076616C282564290D0A0000000148408843
:1038400070470000DC01002031B500F0B5F8009CA5
:103850000546601C00D0641C00F0AEF8401BA0427E
:10386000FAD338BDF8B500238DE001249C40A4466E
:1038700022407DD04C68022C01D0122C0CD1DC08E7
:10388000A40027183C6A5D07ED0E0F26AE40B44336
:103890000E69AE4026433E6205685E000324B440D4
:1038A0000F79A543BF07BF0FB7402F4307604D688F
:1038B000012D05D0022D03D0112D01D0122D0ED1D6
:1038C0008568CF68A543B7402F4387604768654642
:1038D000AF430D79ED06ED0F9D403D434560C56852
:1038E000A5438C68B4402C43C4604C68E40049D5BF
:1038F000284CA56901263543A561A4699D0834407B
:103900000094254CAD002F19BC689D072E0F0F2584
:10391000B540AC430925ED06A84201D100250FE0D2
:103920001E4DA84201D101250AE01D4DA84201D13A
:10393000022505E01B4DA84201D1032500E0052525
:10394000B5402543BD60184C25684E689543F60385
:1039500000D51543256065684E689543B60300D5CC
:1039600015436560A5684E689543F60202D500E0F0
:1039700008E01543A560E5684E689543B60200D59A
:103980001543E5605B1C0A681446DC4000D06CE718
:10399000F8BD000000100240000001400004004893
:1039A00000080048000C004800040140002A01D033
:1039B000816170478162704701480068704700006C
:1039C000E001002070B5024640325378202B1CD114
:1039D0001378012B19D00123137024245470046828
:1039E00025689D432560046825681E03B54325604E
:1039F000046825680D43256000680168194301606B
:103A0000202050700020107070BD022070BD70B575
:103A1000024640325378202B1BD11378012B18D04B
:103A2000012414702423537003681D68A5431D608E
:103A300005682B680F263602B34309021943296033
:103A40000068016821430160202050700020107040
:103A500070BD022070BD000070B5040006D0254680
:103A6000403568780026002802D005E0012070BDAE
:103A70002E70204600F062F92420687020680168EA
:103A80004908490001600F216068090688432168E0
:103A9000086121688A680120C00382438A60E16866
:103AA0000129A16808D02122920211432268916065
:103AB000E168022902D005E00143F7E7012122680D
:103AC000C902516021684A680F4B1A434A60216855
:103AD000CA688243CA60616920690843A169090212
:103AE00008432168C860216AE069084321680860CA
:103AF000206801680122114301606664202068701B
:103B00002663AE70002070BD00800002FFB5054640
:103B100004464035687881B020287ED12878012875
:103B20007BD001202870FFF747FF07460122009055
:103B30001923D103204601F0E1FB00283FD12220C8
:103B400068701020A870002666640398606204986C
:103B500060856663618D09208002FF2903D9FF22F9
:103B60002285009034E0618D2185009036E020466A
:103B7000029901F0B1FB36E001F0E4FB002803D02C
:103B8000606C042847D01AE02068416A606A421CD1
:103B900062620170208D401E80B22085618D491EB9
:103BA000618500281FD1608D00281CD0009700225D
:103BB000802120460A9B01F0A1FB002802D00320AF
:103BC00005B0F0BD608DFF2805D9FF222285009643
:103BD00001231B06CBE7608D20850096208D0123F5
:103BE000C2B25B06C3E7608D0A9900283A462046B8
:103BF000C2D101F0E3FB0028C2D121682020C861B6
:103C000021684A68064B1A404A606870AE702E7090
:103C10000020D5E701E00120D2E70220D0E7000034
:103C200000E800FEFFB5054604464035687881B0DF
:103C300020287ED1287801287BD001202870FFF72A
:103C4000BBFE0746012200901923D103204601F054
:103C500055FB00283FD1212068701020A870002655
:103C6000666403986062049860856663618D0120D4
:103C70004003FF2903D9FF222285009034E0618DA3
:103C80002185009036E02046029901F025FB36E0C0
:103C900001F0BBFB002803D0606C042847D01AE079
:103CA000606A411C6162017820688162608D401EFB
:103CB0006085208D401E0004000C20851FD1608D82
:103CC00000281CD000970022802120460A9B01F08A
:103CD00015FB002802D0032005B0F0BD608DFF2841
:103CE00005D9FF222285009601231B06CBE7608DB4
:103CF00020850096208D0123C2B25B06C3E7608D4C
:103D00000A9900283A462046C2D101F057FB002804
:103D1000C2D121682020C86121684A68064B1A4038
:103D20004A606870AE702E700020D5E701E0012077
:103D3000D2E70220D0E7000000E800FEF0B587B02F
:103D4000044614216846FCF70FFA1D4F266801222D
:103D50001C4C92041225012103231B48BE4212D1A0
:103D60006669164366616669029116401A020596F5
:103D700004910195039300926946FFF773FDE16991
:103D80000120400515E0114FBE4217D16669164368
:103D900066616669029116400322920205960491BB
:103DA0000195039300926946FFF75CFDE1690120EC
:103DB00080050143E161E1690140059107B0F0BD73
:103DC0000054004000100240000400480058004029
:103DD00070B504000FD021681348086021681348AB
:103DE000086003CC41602068083C21688860FFF7C8
:103DF000E3FD054608E0012070BDFFF7DDFD401B37
:103E0000272801D9032070BD2068C0680028F4D19C
:103E100020680269E1688A4201D0016101E0044939
:103E20000160002070BD0000CCCC000055550000A2
:103E3000AAAA000002480168491C016070470000FE
:103E4000E001002010B5064801681022114301600E
:103E5000002000F007F800F017F8002010BD000067
:103E60000020024010B5044600F03AF97D21C90057
:103E7000FCF73AF900F05AFE00222146501E00F0ED
:103E800021F8002010BD000008B508488169012212
:103E900011438161816911400091C26901040A43A3
:103EA000C261C0690840009008BD000000100240D7
:103EB000C106C90E01208840014908607047000012
:103EC00000E100E010B501F0CBFC10BDF8B50546EF
:103ED0000068354CC00352D5E0690026C00007D405
:103EE000E16920040143E161E1690140012600919B
:103EF0002E480168C90510D401688215114301607C
:103F0000FFF75AFD074604E0FFF756FDC01B642883
:103F100024D826480068C005F6D5206A03273F024A
:103F2000384020D06968394081421CD0206A226A1A
:103F3000B843012109040A432262226A8A432262A9
:103F40002062C0070FD0FFF737FD009008E0FFF7B1
:103F500033FD0099411A1648814201D90320F8BD6A
:103F6000206A8007F3D5206A6968B8430843206255
:103F7000002E04D0E169012000078143E161287827
:103F8000C00705D0206BA968800880000843206323
:103F90002878800605D5206B10218843E9680843FE
:103FA00020630020F8BD00000010024000700040B7
:103FB00088130000F8B5054644480E460068C0075F
:103FC000C00FB0420AD24148016849084900314354
:103FD00001600068C007C00FB0425CD128783C4C3B
:103FE000800705D56068F0218843A96808436060B0
:103FF0002878C0073FD06868012813D021680228BC
:1040000013D08907002946DA6168890889000143CD
:104010006160FFF7D1FC6968074601290DD00229CC
:1040200017D024E021688903ECE78901EAE7FFF76C
:10403000C3FCC11B2748814217D860680007800F66
:104040000128F4D117E0FFF7B7FCC11B21488142DA
:104050000BD860680007800F0228F4D10BE0FFF74F
:10406000ABFCC11B1B48814201D90320F8BD60682D
:104070000007800FF3D115480168C907C90FB14285
:104080000BD9016849084900314301600068C00745
:10409000C00FB04201D00120F8BD2878400706D5F6
:1040A0006068072109028843E9680843606000F0FE
:1040B0002DF86168084A0906090F515CC840074994
:1040C00008600020FFF7CEFE0020F8BD002002406F
:1040D000001002408813000086870108E4010020D8
:1040E0000148006870470000E401002004480549C9
:1040F00000684968044A4905490F515CC840704747
:10410000E4010020001002409687010810B511A3B9
:104110000FCB88B06C460FC412A30FCB0FC4154948
:104120004A680C20134603401348042B0FD0082B79
:104130000DD193021B0F6C46E45CC96A04AB0907FE
:10414000090FD203595C920FFBF7CEFF604308B012
:1041500010BD000002030405060708090A0B0C0D38
:104160000E0F10100102030405060708090A0B0CC4
:104170000D0E0F100010024000127A00FEB504462A
:104180000078D24DC00749D068680007800F012829
:1041900020D068680007800F022804D16868C00337
:1041A000800F022816D0012062680004012A18D06E
:1041B0008100002A01D0052A17D02A6882432A608C
:1041C000286888432860606800281BD0FFF7F4FB4C
:1041D000064613E02868800320D56068002876D062
:1041E0001CE0296801432960EDE72A680A432A6038
:1041F000F7E7FFF7E1FB801B642869D82868800394
:10420000F7D50BE0FFF7D8FB064604E0FFF7D4FB39
:10421000801B6428F1D828688003F7D42078012611
:10422000800700283DDA68680007800F13D06868AF
:104230000007800F022804D16868C003800F01289E
:1042400009D0E068002828681CD030432860FFF7B8
:10425000B3FB07460BE0286880070BD5E068012810
:1042600035D107E0FFF7A8FBC01B0228C5D8286896
:104270008007F7D52868F82188432169C9000843D9
:1042800028600EE0400840002860FFF795FB0746D5
:1042900004E0FFF791FBC01B0228AED82868800716
:1042A000F7D42078000723D5E0690028686A10D089
:1042B00030436862FFF780FB074604E0FFF77CFBB2
:1042C000C01B022899D8686A8007F7D510E0FAE089
:1042D000A4E0400840006862FFF76EFB074604E078
:1042E000FFF76AFBC01B022887D8686A8007F7D4EB
:1042F000207804274007002860DA00200190E86950
:10430000C00008D4E969B8060143E961E9690140E0
:104310000120009101906E480168C90511D401681F
:10432000821511430160FFF747FB009005E0FFF79E
:1043300043FB0099401A642870D865480068C0059E
:10434000F5D5A06801280AD0002801D0052810D092
:10435000286A400840002862286AB84301E0286AB9
:1043600030432862A068002812D0FFF725FB009098
:104370000AE0286A38432862F1E7FFF71DFB00993D
:10438000411A5448814249D8286A8007F5D50DE082
:10439000FFF712FB009006E0FFF70EFB0099411AB1
:1043A0004C4881423AD8286A8007F5D40198002801
:1043B00004D0E969012000078143E9612078C00643
:1043C00035D5606901280CD0401D686B23D0384377
:1043D0006863686B400840006863FFF7EDFA0646C3
:1043E00022E0686B38436863686B30436863FFF7AB
:1043F000E3FA064604E0FFF7DFFA801B02285BD8E9
:10440000686B8007F7D5686BF8218843A169C900FC
:10441000084368630BE0B8436863F4E74CE0FFF7D8
:10442000CBFA801B022847D8686B8007F7D4206A34
:10443000002846D069680907890F022943D0012660
:1044400036060228286805D0B0432860FFF7B4FA82
:10445000044633E0B0432860FFF7AEFA074604E0B5
:10446000FFF7AAFAC01B022826D828688001F7D4D3
:10447000E86AE16A000900010843E862616AA06A2B
:10448000084369687B22D203914308436860286827
:1044900030432860FFF790FA044604E0FFF78CFAF7
:1044A000001B022808D828688001F7D509E0FFF72B
:1044B00083FA001B022801D90320FEBD2868800171
:1044C000F5D40020FEBD0120FEBD0000001002401A
:1044D0000070004088130000F8B5040007D00026E3
:1044E00025464035A662687F002802D005E00120FD
:1044F000F8BD2E77204600F04BF802236B7720683A
:1045000001684022914301600721E0680902884266
:1045100001D9002201E0012212030F273F02B84215
:1045200002D0884200D0A662276B002F05D18842B6
:1045300001D9236301E001202063A16860686369F9
:1045400008432169194308430123A1695B0219400B
:104550000843E1690843216A0843A16A08432168C6
:104560000860616B606AA36908431B0C0427E1685B
:104570003B40194308432168104348602068C169E3
:104580007A029143C1612666012068770020F8BD58
:10459000F0B587B0044614216846FBF7E5FD1B4FD4
:1045A0000122266800231A4992040225032419488F
:1045B000BE420ED18F698E1437438F618F693740A9
:1045C00005974E6916434E6149691140059138219E
:1045D00011E0114FBE4216D1CF6936143743CF6177
:1045E000CF69374005974E6916434E6149691140BE
:1045F00005910721490300910293019503940493C7
:104600006946FFF72FF907B0F0BD00000030014008
:10461000001002400004004800380040FFB5044686
:104620000E464068FF21254600270531403581B000
:10463000884202D1A06800280CD0287F012815D01C
:1046400001202877FFF7B8F90090687F01280FD084
:10465000022789E0042068770498009032461146CA
:104660002046039B00F03EF905B0F0BD0220FBE7B9
:10467000002E78D00398002875D004206877002099
:10468000206626640399A9800399E980A063A08726
:10469000E087E064206507200121E2680002090349
:1046A00082422268536801D98B4300E00B43536078
:1046B0000122A168D203914205D121680A68012331
:1046C0009B039A430A6021680A68520603D40A6869
:1046D00040231A430A60E168814218D934E0206817
:1046E0008168C90706D0007B3070E888401EE880EA
:1046F000761C0CE00498002824D0401C07D0FFF75B
:104700005BF901460098091A049881421AD2E88898
:104710000028E4D11BE020688168C90706D0C06882
:104720003080E888401EE880B61C0DE00498002820
:1047300008D0401C08D0FFF73FF90099411A0498AF
:10474000814201D303270FE0E8880028E3D1204607
:10475000009A049901F0BDF8002801D020202066BD
:10476000206E002800D001270120687700202877DC
:10477000384679E7FFB5064604464036307F0027C5
:1047800081B00D46012809D001203077FFF714F9D8
:104790000090707F012804D002279DE0022005B020
:1047A000F0BD002D72D0039800286FD003207077E1
:1047B00000202066A5630399A1870399E1872064FF
:1047C000B080F0802065E0640121A068C9038842C0
:1047D00005D120680168012292031143016020681D
:1047E0000168490603D40168402211430160072093
:1047F000E16800028142606823D9002802D0E08F7E
:1048000001281AD121682888C86005E020688168DD
:10481000890706D52988C160E08F401EE087AD1C5E
:104820000BE0049800283ED0401C06D0FFF7C4F8E7
:104830000099411A0498814235D2E08F0028E5D1D1
:1048400036E0002802D0E08F01282ED1E08F012829
:1048500003D921682888C8600CE02168287808738B
:104860000FE020688168890711D5E18F012906D9F9
:104870002988C160E08F801EE087AD1C15E0297893
:104880000173E08F401EE0876D1C0EE023E004986A
:10489000002808D0401C08D0FFF78EF80099411A74
:1048A0000498814201D3032716E0E08F0028D8D175
:1048B0002046009A049901F048F8002801D02020F1
:1048C0002066A068002803D12068C1688068009035
:1048D000206E002800D0012701207077002030775B
:1048E00038465CE7FFB5044683B0012025464035D5
:1048F0000090287F00270E4601280FD0012028773E
:10490000FFF75AF80190687F616801280DD0CA1F2F
:10491000FD3A08D1A168002905D102E0022007B0C4
:10492000F0BD042801D00227FAE0002E7CD00598C3
:104930000028FBD006980028F8D0687F042801D012
:104940000520687700202066059921640699E98092
:104950000699A980A6630699E1870699A187E06474
:1049600020650723E1681B02994202D8E8880128E4
:1049700006D920684268012109038A43426005E0A4
:1049800020684168012212031143416020680168D8
:10499000490603D40168402211430160E168606860
:1049A000994242D9002802D0E08F012835D12168F0
:1049B0003088C860E08F401EE087B61C2DE000986C
:1049C00000280ED0E08F00280BD02068816889076E
:1049D00007D53188C160E08F401EE0870020B61CFB
:1049E0000090E88800280ED020688168C9070AD0A6
:1049F000C068059908800598801C0590E888401ECD
:104A0000E880012000900C98401C06D0FEF7D4FFEF
:104A10000199411A0C9881426DD2E08F0028CED1C5
:104A2000E8880028CBD16EE079E0002802D0E08F42
:104A3000012862D1E08F012807D921683088C86039
:104A4000E08F801EE087B61C57E02168307808733D
:104A5000E08F401EE087761C4FE00098002818D0B9
:104A6000E08F002815D020688168890711D5E18F73
:104A7000012906D93188C160E08F801EE087B61C0D
:104A800005E031780173E08F401EE087761C00203E
:104A90000090E888002824D020688168C90720D0C9
:104AA000E988012912D9C068059908800598801CF9
:104AB0000590E888801EE880E88801280FD82068E3
:104AC0004168012212031143416008E0017B05980F
:104AD00001700598401C0590E888401EE880012080
:104AE00000900C98401C08D0FEF766FF0199401A10
:104AF0000C99884201D3032712E0E08F0028ACD143
:104B0000E8880028A9D12046019A0C9900F01DFFE1
:104B1000002801D020202066206E002800D0012728
:104B200001206877002028773846F8E6094910B553
:104B3000401E884201D9012010BD074C606103214D
:104B4000081F00F08DFE0020A061072020610020DA
:104B500010BD0000FFFFFF0000E000E0704770475D
:104B600070B5040005D025462035687F002802D0A6
:104B700006E0012070BD00202877204600F00AF8EA
:104B800002206877211D206801F044F80120687731
:104B9000002070BD08B5134A0168134891420DD139
:104BA000C26910210A43C261C06900220840009016
:104BB00011461120FFF786F911200FE00B4A9142B0
:104BC0000ED1C26920210A43C261C0690022084097
:104BD000009011461220FFF775F91220FFF768F9CF
:104BE00008BD00000010004000100240001400400A
:104BF0000268D36801210B43D360006802680A434E
:104C0000026000207047704770B504460068016973
:104C10000025C9438907002915DBC168C9438907F5
:104C200011D4E91E01610120207720688069800786
:104C3000204602D0FFF7E7FF04E000F096F8204698
:104C400000F094F8257720680169C943490717D413
:104C5000C168C943490713D40421C9430161022033
:104C60002077206880698005800F204602D0FFF7FA
:104C7000CAFF04E000F079F8204600F077F82577C5
:104C800020680169C943090716D4C168C9430907E7
:104C900012D40821C9430161042020772068C0692B
:104CA0008007204602D0FFF7AEFF04E000F05DF879
:104CB000204600F05BF8257720680169C943C906E2
:104CC00017D4C168C943C90613D41021C94301616F
:104CD000082020772068C0698005800F204602D018
:104CE000FFF791FF04E000F040F8204600F03EF8A6
:104CF000257720680169C943C90708D1C168C9433C
:104D0000C90704D1891E0161204600F030F82068EF
:104D10000169C943090609D4C168C943090605D414
:104D20008021C94301612046FFF718FF206801690F
:104D3000C943490609D4C168C943490605D440217D
:104D4000C9430161204600F013F820680169C94396
:104D5000890609D4C168C943890605D42021C943FD
:104D600001612046FFF7FBFE70BD7047704770473A
:104D700070477047F8B503680446D96918680D078D
:104D80002D0F07D18A0605D5820603D5204601F0EE
:104D900019F8F8BD9A68002D64D0D507ED0FFF26ED
:104DA000213606402E435DD0CE0706D0C60504D579
:104DB00001261E62E36E3343E3668F070223042657
:104DC000002F06DAD70704D027683B62E76E374327
:104DD000E7664F0706D5D20704D022681662E26E56
:104DE0001A43E2660A0709D5202202402A4305D069
:104DF000236808221A62E36E1343E366E26E002A18
:104E0000C7D0890604D5800602D5204600F0DAFF17
:104E1000E06E000703D42068806840061CD5204659
:104E200000F0B4FF20688168490611D581684022EE
:104E300091438160606E00280AD012494163606E20
:104E4000FDF7C8FA0028A4D0606E416B8847F8BD12
:104E50002046FFF78EFFF8BD2046FFF78AFF0020AF
:104E6000E066F8BD0A0605D5020603D5204601F026
:104E700093F8F8BD4906FCD54006FAD5204600F067
:104E800094FFF8BD795D010870B5040005D0254692
:104E90006035687A002802D006E0012070BD00204D
:104EA0002872204600F026F82420687220680168E5
:104EB000490849000160204600F0C2FF0128EDD0FA
:104EC000606A002802D0204600F0E8FE20684168B1
:104ED0000122D202914341602068816808229143F7
:104EE000816020680168012211430160204600F0C2
:104EF0003AFF70BDF0B587B0044614216846FBF751
:104F000033F94E4B0121266800254D4849040224FF
:104F100003229E421ED18669CB101E43866186699C
:104F20001E40059643690B43436140696B46084048
:104F300005905002039231C3012004900920694674
:104F4000C006FEF78FFC002211461B20FEF7BAFFB9
:104F50001B201FE03B4B9E4220D1C3690B43C36122
:104F6000C3690B40059343690B43436140696B463A
:104F7000084005900C20039231C3012004900920C1
:104F80006946C006FEF76EFC002211461C20FEF7A3
:104F900099FF1C20FEF78CFF07B0F0BD2A4F0123BC
:104FA000DB04BE4213D1C66959100E43C661C669FF
:104FB0000E400596416919434161406969461840B0
:104FC00005903020039231C1012004902BE01F4F47
:104FD000BE4214D1C6691E43C661C6691E4005960D
:104FE00043690B43436140696E460840059034C6EF
:104FF00004200490092069460392C00615E0144974
:105000008E42C9D1866920210E43866186690E4091
:105010000596416919434161406969461840059008
:1050200034C10494039269460A48FEF71BFC00222F
:1050300011461D20FEF746FF1D20ABE7003801405A
:10504000001002400044004000480040004C004076
:105050000014014000080048F0B5034660339C7A14
:10506000202C44D100290BD0002A09D001258468C6
:105070002D03AC4206D10669002E03D1CE0701D024
:105080000120F0BD1E7A012E31D001261E7241652D
:10509000014640310A834A83FF27AC4204D10269AA
:1050A000002A12D1134A0EE07F22002C08D00125DD
:1050B0002D07AC420AD10469002C04D03F2202E043
:1050C0000469002C01D08A8300E08F830021C1662F
:1050D00022229A72197201688A6832438A600068D3
:1050E0000168FF222132114301600020F0BD02203F
:1050F000F0BD0000FF01000010B5006813498842B0
:1051000007D113480078FDF749FA012210491148E8
:105110000BE0114988420BD10D48801E0078FDF745
:105120000FFB0B490122891E0C48FFF795FF10BDAC
:105130000B498842FBD10648401E0078FEF722FB4F
:1051400003490122491E0748EFE70000001401400F
:105150007F010020581C002000480040781B0020E0
:10516000004C0040E81B0020FFB5064604466036B0
:10517000707A83B00D46202858D1002D0CD00598A8
:10518000002809D00120A1680003814207D12069CD
:10519000002804D1E80702D0012007B0F0BD307A22
:1051A000012843D0012030720020E0662120707277
:1051B000FEF702FC01902746403705983882059893
:1051C000788218E0788A401E788206980090002243
:1051D00080212046019B00F012FF002818D10120F9
:1051E000A1680003814202D12069002812D0216801
:1051F000287808856D1C788A0028E3D106980090ED
:10520000002240212046019B00F0F9FE002808D032
:105210000320C2E728882168C005C00D0885AD1CA1
:10522000E9E72020707200203072B6E70220B4E770
:10523000704710B5FBF754FCFCF762F910BDFEE7B0
:1052400001688A69D243920701D400228A62006809
:105250008169C943C90703D0816901221143816172
:1052600070470000F7B5044600680E468069C043E9
:10527000C0062CD420272546403520688069C043CD
:1052800080060FD5701CF8D0002E05D0FEF794FBD9
:105290000299401AB042F0D96F700020A8702870AF
:1052A0000320FEBD21681020C8612068C761204628
:1052B000FFF7C6FF20684168064A1140416004209C
:1052C00060646F700020A87028700120FEBD00206F
:1052D000FEBD000000E800FE70B50568049C68682B
:1052E0008905890D1204044E1143194330402143AE
:1052F0000143696070BD0000009800FCF8B51C46D1
:1053000017460E46054611E0601C0FD0002C05D054
:10531000FEF752FB0699401AA04207D920204035DB
:1053200068700020A87028700320F8BD2868816983
:105330003046884304D00020B842E5D00020F8BDB4
:105340000120F9E7F7B50027202605460446403539
:105350002AE02046029A0199FFF784FF002801D035
:105360000120FEBD20688069C04380060BD4206800
:10537000C66120684168104A1140416067646E70E0
:10538000AF702F70ECE70198002806D0FEF714FBF1
:105390000299411A0198814206D9606C30436064D9
:1053A0006E702F700320FEBD20688069C0434007E7
:1053B000CFD40020FEBD000000E800FE70B5164608
:1053C0000D4604461AE0324629462046FFF74AFFBA
:1053D000002801D0012070BD002D04D0FEF7ECFAAA
:1053E000801BA8420AD9616C2020014361644034CB
:1053F00060700020A0702070032070BD206880695C
:10540000C0438006DFD4002070BD70B516460D463F
:1054100004461CE0324629462046FFF723FF0028B9
:1054200001D0012070BD681C11D0002D04D0FEF702
:10543000C3FA801BA8420AD9616C20200143616431
:10544000403460700020A0702070032070BD206880
:105450008069C0438007DDD4002070BD10B50C46C4
:10546000024600F037F8002801D0002010BD0120CE
:105470008002131818688000105C20701868401CA7
:10548000C117090E0918090A0902401A18600120FB
:1054900010BD10B50C46034600F026F8002801D0D8
:1054A000002010BD012080021A18506880001C5096
:1054B0005068401CC117090E0918090A0902401A50
:1054C0005060012010BD0121002289024018426075
:1054D0000260704701218902401803C8884201D147
:1054E0000120704700207047012189024118486857
:1054F0000968401CC217120E1218120A1202801AF2
:10550000884201D101207047002070470EB500216C
:105510001348009101910291104A4160026081603C
:10552000012204230C300EC0016041608160FF2322
:10553000C160C23341610361C26181611838FCF707
:10554000EDFD09200090012000030190000402906D
:1055500069460348FCF756FD0EBD000000240140DB
:105560005C180020F0B587B014216846FAF7FCFDFE
:10557000364842690121C9040A43426142690A402E
:105580000592426989100A43426142690A400592C4
:10559000426949000A43426142690A4005924269F0
:1055A00089000A4342614069294C08400590002265
:1055B00021462848FEF7FAF9274E002231462748AF
:1055C000FEF7F4F999273F02092000223946C00668
:1055D000FEF7ECF9002204212148FEF7E7F90094D8
:1055E000002401250195029469461A480394FEF7A8
:1055F00039F91948019439380090694602941548E0
:10560000FEF730F902946946144800960195039418
:10561000FEF728F904260194694610480096029482
:10562000FEF720F9092002946946C006009701950B
:105630000394FEF717F9019569460948009602950B
:105640000394FEF70FF907B0F0BD00000010024010
:10565000040F00000008004841100000000400484A
:10566000000C004810B50D480B4901600C49416021
:10567000002181600161416181610122C161C260DB
:105680000162FEF7E9F900210448FEF79BF90021C9
:105690000248FEF7BCF910BD00540040A8180020D5
:1056A0000E09002010B50D480B4901600C494160FE
:1056B000002181600161416181610122C161C2609B
:1056C0000162FEF7C9F900210448FEF77BF90021C9
:1056D0000248FEF79CF910BD00580040F418002065
:1056E000D28C800010B50F480D490160FF210531B3
:1056F000416000210722816012020161C2604161A4
:10570000C16101220162520241628261816207220B
:10571000C262016308214163FEF7DEFE10BD000096
:10572000003001405019002010B50F480D490160AC
:10573000FF210531416000210722816012020161D1
:10574000C2604161C1610122016252024162826113
:1057500081620722C262016308214163FEF7BCFE39
:1057600010BD000000380040B419002010B50A48F0
:1057700008490160E1214902416000218160C16066
:1057800001618161C1610C22016242614162FFF7E6
:105790007BFB10BD00380140981A002010B50A4864
:1057A00008490160E1214902416000218160C16036
:1057B00001618161C1610C22016242614162FFF7B6
:1057C00063FB10BD00440040081B002010B50A48D0
:1057D000084901604B21C901416000218160C1601D
:1057E00001618161C1610C22016242614162FFF786
:1057F0004BFB10BD00480040781B002010B50A4844
:10580000084901604B21C901416000218160C160EC
:1058100001618161C1610C22016242614162FFF755
:1058200033FB10BD004C0040E81B002010B50A48B7
:10583000084901604B21C901416000218160C160BC
:1058400001618161C1610C22016242614162FFF725
:105850001BFB10BD00140140581C002070470000C5
:105860008307FF22DB0E9A408907090E9940002822
:105870000BDA0007000F0838830808489B00181847
:10588000C36993430B43C3617047830804489B007B
:105890001B181868904308431860704700ED00E03B
:1058A00000E400E0BFF34F8F04490348C860BFF332
:1058B0004F8F00BFFDE700000400FA0500ED00E097
:1058C0000007000F092801D8303070473730704783
:1058D0007047F7B504464068FF26053682B0154686
:1058E000B0420CD10121A068C903884202D04911FD
:1058F000884204D1206801684022914301600095EC
:10590000002280212046039B00F090F820270028E9
:1059100013D16068B04216D1A068B902884202D0A3
:10592000491188420FD103210095002249022046E7
:10593000039B00F030F8002805D0206E3843206625
:10594000032005B0F0BD0020FBE7F8B50F460B467D
:1059500015460092032104460022C90200F01BF8FC
:105960002026002812D13B460022802120460095A7
:1059700000F05CF8002809D103213B4600224902CF
:105980002046009500F007F8002803D0206E304331
:1059900020660320F8BDF8B51D4617460E4604469E
:1059A0003DE0032149028E4205D1002F03D1017B46
:1059B000684601700078681C31D0002D05D0FDF7D5
:1059C000FBFF0699401AA84229D320684168E022CB
:1059D000914341606068C11FFD390CD10121A0686D
:1059E000C903884202D04911884204D12068016865
:1059F0004022914301600120A16A4003814207D106
:105A000021680A6882430A6021680A6802430A60C2
:105A1000012040346077002020770320F8BD206803
:105A200081683140B942BCD10020F8BDF8B51D46AF
:105A300017460E46044633E0681C31D0002D05D0D1
:105A4000FDF7BAFF0699401AA84229D32068416899
:105A5000E022914341606068C11FFD390CD10121F2
:105A6000A068C903884202D04911884204D1206845
:105A700001684022914301600120A16A40038142F4
:105A800007D121680A6882430A6021680A680243D4
:105A90000A60012040346077002020770320F8BDA1
:105AA000206881683046884304D00020B842C3D1C2
:105AB0000020F8BD0120F9E7704710B50C4600F052
:105AC00007F80007030E204600F002F8184310BD47
:105AD00002460021303A092A01D8D1B20AE0024632
